:100000000C949E000C94C6000C94C6000C94C60080
:100010000C94C6000C94C6000C94C6000C94C60048
:100020000C94C6000C94C6000C94C6000C94C60038
:100030000C94C6000C9447080C94C6000C94C6009F
:100040000C94A5070C94C6000C9415080C94EF07AB
:100050000C94C6000C94C6000C94C6000C94C60008
:100060000C94C6000C94C60007634236B79BD8A711
:100070001A39685618AEBAAB558C1D3CB7CC5763CD
:10008000BD6DEDFD753EF6177231BF000000803F7B
:1000900008000000BE922449123EABAAAA2ABECD97
:1000A000CCCC4C3E00000080BEABAAAAAA3E000009
:1000B0000000BF000000803F000000000008417801
:1000C000D3BB4387D1133D190E3CC3BD4282AD2B38
:1000D0003E68EC8276BED98FE1A93E4C80EFFFBE30
:1000E00001C4FF7F3F000000000000000008000284
:1000F00001000003040700000000000000000000F1
:100100000000250028002B0000000000240027002C
:100110002A00040404040404040402020202020289
:1001200003030303030301020408102040800102BB
:10013000040810200102040810206E0811241FBEBC
:10014000CFEFD8E0DEBFCDBF24E0A0E5B2E001C034
:100150001D92A939B207E1F712E0A0E0B1E0E6EBA9
:10016000FDE102C005900D92A035B107D9F710E06E
:10017000CEE9D0E004C02197FE010E941A0BCD39D0
:10018000D107C9F70E94BA080C94D90E0C9400004C
:1001900090E0FC01EA5DFE4F2491FC01EE5EFE4F13
:1001A0008491882399F090E0880F991FFC01E85F03
:1001B000FE4FA591B491FC01E250FF4F85919491BF
:1001C0008FB7F894EC91E22BEC938FBF089590E0F9
:1001D000FC01E651FF4F2491FC01EA5DFE4F349192
:1001E000FC01EE5EFE4FE491EE2309F43CC02223B5
:1001F00039F1233091F038F42130A9F0223001F5A3
:1002000084B58F7D12C0273091F02830A1F02430C2
:10021000B9F4809180008F7D03C0809180008F773A
:10022000809380000DC084B58F7784BD09C0809114
:10023000B0008F7703C08091B0008F7D8093B000B5
:10024000F0E0EE0FFF1FE250FF4FA591B4919FB772
:10025000F894611104C08C913095382302C0EC9160
:100260003E2B3C939FBF08953FB7F8948091E402E2
:100270009091E502A091E602B091E70226B5A89B15
:1002800005C02F3F19F00196A11DB11D3FBFBA2F28
:10029000A92F982F8827820F911DA11DB11DBC0188
:1002A000CD0142E0660F771F881F991F4A95D1F74D
:1002B00008958F929F92AF92BF92CF92DF92EF926A
:1002C000FF926B017C010E9434014B015C01C1145F
:1002D000D104E104F104F1F00E943401DC01CB010E
:1002E00088199909AA09BB09883E9340A105B1055F
:1002F00070F321E0C21AD108E108F10888EE880EF7
:1003000083E0981EA11CB11CC114D104E104F104C6
:1003100019F7DDCFFF90EF90DF90CF90BF90AF90B7
:100320009F908F900895CF92DF92EF92FF920F935C
:100330001F93CF93DF936C017A018B01C0E0D0E073
:10034000CE15DF0581F0D8016D918D01D601ED91BB
:10035000FC910190F081E02DC6010995892B11F0E7
:100360002196EECF7E01C701DF91CF911F910F91B2
:10037000FF90EF90DF90CF900895089580E090E097
:100380000895FC01538D448D252F30E0842F90E09B
:10039000821B930B541710F0CF9608950197089580
:1003A000FC01918D828D981761F0828DDF01A80F7D
:1003B000B11D5D968C91928D9F5F9F73928F90E09F
:1003C00008958FEF9FEF0895FC01918D828D98170E
:1003D00031F0828DE80FF11D858D90E008958FEF4B
:1003E0009FEF0895FC01918D228D892F90E0805C14
:1003F0009F4F821B91098F739927089588EE92E091
:100400000E94F20121E0892B09F420E0822F089557
:10041000FC01848DDF01A80FB11DA35ABF4F2C91A1
:10042000848D90E001968F739927848FA689B78970
:100430002C93A089B1898C91837080648C93938D67
:10044000848D981306C00288F389E02D80818F7D0A
:1004500080830895EF92FF920F931F93CF93DF93C2
:10046000EC0181E0888F9B8D8C8D981305C0E88905
:10047000F989808185FD26C0F62E0B8D10E00F5F77
:100480001F4F0F731127E02E8C8DE8120CC00FB692
:1004900007FCFACFE889F989808185FFF5CFCE0185
:1004A0000E940802F1CF8B8DFE01E80FF11DE35A87
:1004B000FF4FF0829FB7F8940B8FEA89FB89808108
:1004C00080620AC09FB7F894EE89FF896083E8894B
:1004D000F98980818370806480839FBF81E090E090
:1004E000DF91CF911F910F91FF90EF900895CF93DF
:1004F000DF93EC01888D8823C9F0EA89FB8980812C
:1005000085FD05C0A889B9898C9186FD0FC00FB6FD
:1005100007FCF5CF808185FFF2CFA889B9898C913E
:1005200085FFEDCFCE010E940802E7CFDF91CF918A
:10053000089580E090E0892B29F00E94FE0181114E
:100540000C94000008958F929F92AF92BF92CF9229
:10055000DF92EF92FF920F931F93CF930BEC12E079
:10056000C3E0F801119211928F0161E08C2F0E947B
:10057000E700CE5FC331A9F700E010E080910001F1
:100580009091010108171907A8F4C2E061E08C2FCF
:100590000E94E70060E08C2F0E94E700CE5FC2312E
:1005A000A9F765E070E080E090E00E9459010E5FDD
:1005B0001F4FE4CF87EBA82E82E0B82E0FE812E0A1
:1005C0009DE7C92E92E0D92E22E0E22E21E0F22E04
:1005D000C0E03EE9832E912CF501119211925F014A
:1005E000F8011582148260E083E08C0F0E94E7001E
:1005F000F80117821682F601119211926F01F7012C
:10060000819291927F010C5F1F4FCE5FC03121F725
:10061000CF911F910F91FF90EF90DF90CF90BF90FF
:10062000AF909F908F900895CF93DF938091CB02EE
:100630009091CC02009771F02091690230916A028A
:100640002F5F3F4F30936A022093690228173907C2
:1006500008F0C3C08091CD029091CE02009771F056
:1006600020916B0230916C022F5F3F4F30936C02F0
:1006700020936B022817390708F0E2C08091CF025F
:100680009091D002009771F020916D0230916E022E
:100690002F5F3F4F30936E0220936D02281739076A
:1006A00008F001C18091D1029091D202009771F0BF
:1006B00020916F02309170022F5F3F4F3093700294
:1006C00020936F022817390708F020C18091D302C8
:1006D0009091D402009771F02091710230917202D2
:1006E0002F5F3F4F30937202209371022817390712
:1006F00008F072C18091D5029091D602009771F0F6
:1007000020917302309174022F5F3F4F3093740237
:10071000209373022817390708F02BC18091D70264
:100720009091D802009771F0209175023091760275
:100730002F5F3F4F309376022093750228173907B9
:1007400008F07DC18091D9029091DA02009769F09A
:1007500020917702309178022F5F3F4F30937802DB
:10076000209377022817390718F4DF91CF91089565
:10077000C091C502D091C6028091100190911101E3
:10078000C817D90708F08CC180918B0290918C0218
:100790008C179D0708F0E4C18091B1029091B202DC
:1007A000019709F487C12196D093C602C093C50270
:1007B000C091AF02D091B0026C2F80E10E94E7009F
:1007C000C095D095D093B002C093AF02109278023A
:1007D00010927702DF91CF910895C091B702D09126
:1007E000B8028091020190910301C817D90708F05F
:1007F000ABC180917D0290917E028C179D0708F01D
:10080000B8C18091950290919602019709F4A6C112
:100810002196D093B802C093B702C0919302D091B1
:1008200094026C2F82E00E94E700C095D095D0938F
:100830009402C093930210926A02109269020ACF46
:10084000C091B902D091BA02809104019091050142
:10085000C817D90708F06CC180917F02909180027F
:100860008C179D0708F0A9C18091990290919A0276
:10087000019709F467C12196D093BA02C093B902D7
:10088000C0919702D09198026C2F84E00E94E700FB
:10089000C095D095D0939802C093970210926C02A5
:1008A00010926B02EBCEC091BB02D091BC02809142
:1008B000060190910701C817D90708F02DC1809152
:1008C0008102909182028C179D0708F06DC1809182
:1008D0009D0290919E02019709F428C12196D09320
:1008E000BC02C093BB02C0919B02D0919C026C2FB2
:1008F00086E00E94E700C095D095D0939C02C093FB
:100900009B0210926E0210926D02CCCEC091BD027D
:10091000D091BE028091080190910901C817D907B2
:1009200008F0EEC080918302909184028C179D079D
:1009300008F028C18091A1029091A202019709F4C8
:10094000E9C02196D093BE02C093BD02C0919F0220
:10095000D091A0026C2F88E00E94E700C095D0954E
:10096000D093A002C0939F021092700210926F0267
:10097000ADCEC091C102D091C20280910C01909184
:100980000D01C817D90708F0AFC080918702909178
:1009900088028C179D0708F0FEC08091A9029091F3
:1009A000AA02019709F4AAC02196D093C202C0936B
:1009B000C102C091A702D091A8026C2F8CE00E94C6
:1009C000E700C095D095D093A802C093A7021092DB
:1009D000740210927302A2CEC091BF02D091C002E5
:1009E00080910A0190910B01C817D90708F070C0D7
:1009F00080918502909186028C179D0708F0EFC0C8
:100A00008091A5029091A602019709F46BC02196EE
:100A1000D093C002C093BF02C091A302D091A402A0
:100A20006C2F8AE00E94E700C095D095D093A40275
:100A3000C093A30210927202109271025BCEC09119
:100A4000C302D091C40280910E0190910F01C8178A
:100A5000D90790F58091890290918A028C179D07A1
:100A600008F0B4C08091AD029091AE02019771F18F
:100A70002196D093C402C093C302C091AB02D0911F
:100A8000AC026C2F8EE00E94E700C095D095D09309
:100A9000AC02C093AB02109276021092750252CE55
:100AA00081E090E09093B2028093B10261E081E135
:100AB0000E94E700219778CE81E090E09093AE020B
:100AC0008093AD0261E08FE00E94E7002197D1CFD3
:100AD00081E090E09093A6028093A50261E08BE014
:100AE0000E94E700219794CF81E090E09093AA02C2
:100AF0008093A90261E08DE00E94E700219755CF25
:100B000081E090E09093A2028093A10261E089E0ED
:100B10000E94E700219716CF81E090E090939E021B
:100B200080939D0261E087E00E94E7002197D7CE85
:100B300081E090E090939A028093990261E085E0D1
:100B40000E94E700219798CE81E090E09093960272
:100B50008093950261E083E00E94E700219759CEDF
:100B60001092B2021092B10260E081E10E94E700AF
:100B70001ACE109296021092950260E083E00E94D5
:100B8000E70046CE1092A2021092A10260E089E036
:100B90000E94E700D6CE1092AA021092A90260E04D
:100BA0008DE00E94E70000CF10929E0210929D02FD
:100BB00060E087E00E94E70091CE10929A021092C6
:100BC000990260E085E00E94E70055CE1092AE02E7
:100BD0001092AD0260E08FE00E94E70049CF1092D2
:100BE000A6021092A50260E08BE00E94E7000FCF02
:100BF0004436E9F4F901808170E0660F771FFB014C
:100C0000E558FD4F811108C011821082FB01E050B0
:100C1000FF4F8EE990E009C08FE490E091838083DC
:100C2000FB01E050FF4F81E590E0918380830895C0
:100C300070E0660F771FFB01ED5AFD4F11821082A5
:100C4000FB01E753FD4F118210820895DA01EC9108
:100C5000E834A0F470E0F0E0EE0FFF1FEE5DFE4F11
:100C600080819181660F771FFB01ED5AFD4F9183C3
:100C70008083FB01E753FD4F918380830895BF92EA
:100C8000CF92DF92EF92FF920F931F93CF93DF9358
:100C900061110BC0DF91CF911F910F91FF90EF90E9
:100CA000DF90CF90BF900C94A302C62F062F10E0C8
:100CB000000F111FF801E753FD4F11821082CC0F76
:100CC000BB24B394BC0E61E08B2D0E94E700C12CC5
:100CD000D12CC80180509F4F7C01F7018081918108
:100CE000C816D90690F461E08C2F0E94E70060E0FE
:100CF0008C2F0E94E70065E070E080E090E00E94A9
:100D00005901F2E0CF0ED11CE8CFF801EB54FD4FB2
:100D100011821082D0E0FE01EE0FFF1FE157FD4F60
:100D20001182108260E08B2D0E94E700CC0FDD1F46
:100D3000CF56DD4F19821882F801E558FD4F118218
:100D400010828EE990E0F70191838083DF91CF914B
:100D50001F910F91FF90EF90DF90CF90BF9008957B
:100D6000EBECF2E01192119282E0EB3DF807D1F743
:100D700008950C94A30282E00E94C80083E00E94C0
:100D8000C80084E00E94C80085E00E94C80086E098
:100D90000E94C80087E00E94C80088E00E94C80046
:100DA00089E00E94C8008AE00E94C8008BE00E948F
:100DB000C8008CE00E94C8008DE00E94C8008EE050
:100DC0000E94C8008FE00E94C80080E10E94C80015
:100DD00081E10E94C80082E10E94C80083E10E9474
:100DE000C8000E94A30264EF71E080E090E00E94DE
:100DF0005901E1E8F0E080E180831092800081E019
:100E00008093520220E431E030935102209350024B
:100E1000309387002093860091E1908324E133E0B2
:100E20003093DE022093DD0280936F0008950895D1
:100E300008950895DC01ED91FC914830D1F018F44B
:100E4000442349F01BC0493081F04E30B9F4028888
:100E5000F389E02D11C0611104C00084F185E02DFB
:100E600009940484F585E02D09940684F785E02D26
:100E700003C00088F189E02DA90109940488F5894F
:100E8000E02D0994DC01ED91FC916C3F41F06F3F46
:100E900051F06A3F61F40480F581E02D03C00680C3
:100EA000F781E02D09940084F185E02DFBCF0284C9
:100EB000F385E02D09940E94D40ECF92DF92EF9239
:100EC000FF92CF93DF93C62FD0E0FA01608171814A
:100ED000762767277627072E000C880B990B0E9430
:100EE000210A20E030E040E059E30E945C0A2BEA4E
:100EF0003AEA4AE25EE30E945C0A9B01AC0160E0D0
:100F000070E080E090E40E94C10B6B017C01BE01A7
:100F1000660F771FEB01C753DD4FFB01ED5AFD4F05
:100F20006081718180E090E00E941F0AA701960114
:100F30000E94200B0E94920B79836883DF91CF91EE
:100F4000FF90EF90DF90CF9008951F920F920FB611
:100F50000F9211242F933F938F939F93AF93BF933F
:100F60008091E0029091E102A091E202B091E3024F
:100F70003091DF0223E0230F2D3720F40196A11DCD
:100F8000B11D05C026E8230F0296A11DB11D2093B7
:100F9000DF028093E0029093E102A093E202B0931B
:100FA000E3028091E4029091E502A091E602B09103
:100FB000E7020196A11DB11D8093E4029093E50222
:100FC000A093E602B093E702BF91AF919F918F91FA
:100FD0003F912F910F900FBE0F901F9018951F9269
:100FE0000F920FB60F9211242F933F934F935F935D
:100FF0006F937F938F939F93AF93BF93EF93FF93E1
:1010000088EE92E00E940802FF91EF91BF91AF91AC
:101010009F918F917F916F915F914F913F912F9110
:101020000F900FBE0F901F9018951F920F920FB642
:101030000F9211242F938F939F93EF93FF93E0913F
:10104000F802F091F9028081E091FE02F091FF0236
:1010500082FD12C09081809101038F5F8F73209178
:101060000203821751F0E0910103F0E0E851FD4FD7
:10107000958F8093010301C08081FF91EF919F9133
:101080008F912F910F900FBE0F901F9018951F9268
:101090000F920FB60F9211242F933F934F935F93AC
:1010A0006F937F938F939F93AF93BF93EF93FF9330
:1010B000E091DD02F091DE020995FF91EF91BF9181
:1010C000AF919F918F917F916F915F914F913F91E0
:1010D0002F910F900FBE0F901F901895CF93DF9315
:1010E000E8EEF2E01382128288EE93E0A0E0B0E036
:1010F00084839583A683B78386E292E0918380837D
:1011000085EC90E09587848784EC90E097878687CC
:1011100080EC90E0918B808B81EC90E0938B828BC4
:1011200082EC90E0958B848B86EC90E0978B868B9D
:10113000118E128E138E148E82E090E00E94B30DF9
:1011400028E332E0FC013183208390939404809360
:101150009304C5E8D3E01A8228E0EAE1F1E0ABE8C5
:10116000B4E001900D922A95E1F799838883DF918D
:10117000CF910895789484B5826084BD84B58160F0
:1011800084BD85B5826085BD85B5816085BD809152
:101190006E00816080936E001092810080918100CA
:1011A00082608093810080918100816080938100C2
:1011B000809180008160809380008091B100846084
:1011C0008093B1008091B00081608093B0008091E5
:1011D0007A00846080937A0080917A0082608093A4
:1011E0007A0080917A00816080937A0080917A0001
:1011F000806880937A001092C1008091930490914E
:101200009404DC01ED91FC910688F789E02D0995A5
:10121000E091F802F091F90282E08083E091F80217
:10122000F091F9021082E091F402F091F50210823F
:10123000E091F602F091F70280E1808310920003C2
:10124000E091FC02F091FD0286E08083E091FA02D9
:10125000F091FB02808180618083E091FA02F0913D
:10126000FB02808188608083E091FA02F091FB02AA
:10127000808180688083E091FA02F091FB02808196
:101280008F7D808382E0F82EEE24E39480918703A3
:10129000843029F480918703843041F011C088EEB6
:1012A00092E00E94F201892B71F4F4CF88EE92E073
:1012B0000E94F20120918B0330E0821793071CF407
:1012C0000E949902E3CF80918703823059F488EE1F
:1012D00092E00E94D00180938A03893068F01092D6
:1012E0008703D4CF833070F0833039F588EE92E0F5
:1012F0000E94D00180938B03809187038F5F80933E
:101300008703C4CF81110BC088EE92E00E94D00108
:101310008D34910509F0BACFE0928703B7CF8130C1
:1013200009F0B4CF88EE92E00E94D0018093890347
:101330008230A8F6F0928703A9CF843009F0A6CFB7
:1013400000918B0310E0C5E8D3E0CE0185589340AF
:101350008017910730F080918903882309F43FC0FA
:1013600059C02FB7F8948091E0029091E102A091CA
:10137000E202B091E3022FBF8093F0029093F1025A
:10138000A093F202B093F30288EE92E00E94D001A3
:1013900097FF52C02FB7F8948091E0029091E1023C
:1013A000A091E202B091E3022FBF4091F002509170
:1013B000F1026091F2027091F302841B950BA60B6F
:1013C000B70B4091EC025091ED026091EE027091EA
:1013D000EF0284179507A607B707B0F2BCCF60915C
:1013E0008C03603849F448E050E06BE874E088EE24
:1013F00092E00E94930173CF8091850390918603C0
:10140000DC01ED91FC910190F081E02D4DE853E07D
:10141000099565CF8091850390918603DC01ED915C
:10142000FC910280F381E02D2DE833E040918C03A4
:1014300060918A03099553CF8F83219686CFE894D4
:1014400009C097FB3EF490958095709561957F4F0C
:101450008F4F9F4F9923A9F0F92F96E9BB279395BA
:10146000F695879577956795B795F111F8CFFAF4CA
:10147000BB0F11F460FF1BC06F5F7F4F8F4F9F4FFB
:1014800016C0882311F096E911C0772321F09EE859
:10149000872F762F05C0662371F096E8862F70E0BF
:1014A00060E02AF09A95660F771F881FDAF7880F99
:1014B0009695879597F908950E946F0A0C94E00A13
:1014C0000E94D20A38F00E94D90A20F0952311F028
:1014D0000C94C90A0C94CF0A11240C94140B0E948A
:1014E000F10A70F3959FC1F3950F50E0551F629F6D
:1014F000F001729FBB27F00DB11D639FAA27F00D6D
:10150000B11DAA1F649F6627B00DA11D661F829F93
:101510002227B00DA11D621F739FB00DA11D621F78
:10152000839FA00D611D221F749F3327A00D611D95
:10153000231F849F600D211D822F762F6A2F112477
:101540009F5750409AF0F1F088234AF0EE0FFF1FAA
:10155000BB1F661F771F881F91505040A9F79E3F01
:10156000510580F00C94C90A0C94140B5F3FE4F30E
:10157000983ED4F3869577956795B795F795E79557
:101580009F5FC1F7FE2B880F911D9695879597F960
:10159000089597F99F6780E870E060E008959FEFF5
:1015A00080EC089500240A941616170618060906FA
:1015B000089500240A9412161306140605060895C9
:1015C000092E0394000C11F4882352F0BB0F40F451
:1015D000BF2B11F460FF04C06F5F7F4F8F4F9F4F91
:1015E000089557FD9058440F551F59F05F3F71F013
:1015F0004795880F97FB991F61F09F3F79F087957A
:101600000895121613061406551FF2CF4695F1DF02
:1016100008C0161617061806991FF1CF8695710592
:10162000610508940895E894BB2766277727CB01C6
:1016300097F90895EE0FFF1F0590F491E02D09949E
:101640000E94340B0C94E00A0E94D90A58F00E94C0
:10165000D20A40F029F45F3F29F00C94C90A5111D5
:101660000C94140B0C94CF0A0E94F10A68F399238E
:10167000B1F3552391F3951B550BBB27AA2762178E
:101680007307840738F09F5F5F4F220F331F441F9B
:10169000AA1FA9F335D00E2E3AF0E0E832D09150CF
:1016A0005040E695001CCAF72BD0FE2F29D0660FBC
:1016B000771F881FBB1F261737074807AB07B0E8FF
:1016C00009F0BB0B802DBF01FF2793585F4F3AF005
:1016D0009E3F510578F00C94C90A0C94140B5F3F9F
:1016E000E4F3983ED4F3869577956795B795F7958B
:1016F0009F5FC9F7880F911D9695879597F9089573
:10170000E1E0660F771F881FBB1F6217730784070E
:10171000BA0720F0621B730B840BBA0BEE1F88F71D
:10172000E09508950E94F90A88F09F5798F0B92F24
:101730009927B751B0F0E1F0660F771F881F991F06
:101740001AF0BA95C9F714C0B13091F00E94130B8A
:10175000B1E008950C94130B672F782F8827B85F9A
:1017600039F0B93FCCF3869577956795B395D9F75E
:101770003EF490958095709561957F4F8F4F9F4F68
:101780000895FA01EE0FFF1F309621053105A1F1F2
:101790006115710561F48038BFE39B0749F16894D6
:1017A0009038810561F08038BFEF9B0741F09923A5
:1017B0004AF5FF3FE1053105210519F1E894089448
:1017C000E795D901AA2329F4AB2FBE2FF85FD0F3F8
:1017D00010C0FF5F70F4A695E0F7F73950F019F0EC
:1017E000FF3A38F49F779F930DD00F9007FC9058E5
:1017F000089546F00C94CF0A60E070E080E89FE323
:1018000008954FE79F775F934F933F932F930E94E5
:10181000BC0C2F913F914F915F910E945C0A0C94F8
:10182000190C29F416F00C94C90A0C94130B0C949F
:10183000CF0A0E94F90AA8F39638A0F707F80F928A
:10184000E8942BE33AEA48EB5FE70E94720A0F92B2
:101850000F920F924DB75EB70F920E94040DE8E60B
:10186000F0E00E944B0C4F915F91EF91FF91E59555
:10187000EE1FFF1F49F0FE57E0684427EE0F441F9C
:10188000FA95E1F74195550B0E947E0C0F9007FEEB
:101890000C94720C0895DF93CF931F930F93FF92D4
:1018A000EF92DF927B018C01689406C0DA2EEF0183
:1018B0000E946F0AFE01E894A5912591359145910A
:1018C0005591A6F3EF010E94500DFE019701A8016A
:1018D000DA9469F7DF90EF90FF900F911F91CF910D
:1018E000DF9108959B01AC0160E070E080E89FE328
:1018F0000C94200B0C94C90A0C94A50D0E94F90AB3
:10190000D8F39923C9F3940F511DA3F3915050407C
:1019100094F059F0882332F0660F771F881F91509A
:101920005040C1F79E3F51052CF7880F911D9695A9
:10193000879597F908955F3FACF0983E9CF0BB27E0
:10194000869577956795B79508F4B1609395C1F73B
:10195000BB0F58F711F460FFE8CF6F5F7F4F8F4FD9
:101960009F4FE3CF0C94140B16F00C94A50D0C9420
:10197000CF0A68940C94C90A0E94F90AA8F3992323
:10198000C1F3AEF3DF93CF931F930F93FF92C92F51
:10199000DD2788232AF02197660F771F881FDAF743
:1019A00020E030E040E85FEB9FE3883920F0803EA4
:1019B00038F021968F770E94390DE0E9F0E004C0FD
:1019C0000E94390DEDEBF0E00E944B0C8B01BE0143
:1019D000EC01FB2E6F5771097595771F880B990BDA
:1019E0000E94210A28E132E741E35FE30E946F0A87
:1019F000AF2D9801AE01FF900F911F91CF91DF9114
:101A00000E94500D0C94E00AFA01DC01AA0FBB1FE2
:101A10009B01AC01BF5728F4222733274427507875
:101A200020C0B75190F4AB2F0024469537952795E9
:101A3000011CA395D2F3002071F0220F331F441F25
:101A4000B395DAF30ED00C94380D61307105A0E82F
:101A50008A07B94630F49B01AC01662777278827AF
:101A60009078309621F02083318342835383089508
:101A70005058BB27AA270E94500D0C94E00A0E94E0
:101A8000D20A38F00E94D90A20F039F49F3F19F4A5
:101A900026F40C94CF0A0EF4E095E7FB0C94C90AE7
:101AA000E92F0E94F10A58F3BA17620773078407F7
:101AB000950720F079F4A6F50C94130B0EF4E0953D
:101AC0000B2EBA2FA02D0B01B90190010C01CA01F8
:101AD000A0011124FF27591B99F0593F50F4503EA3
:101AE00068F11A16F040A22F232F342F4427585F95
:101AF000F3CF469537952795A795F0405395C9F7AD
:101B00007EF41F16BA0B620B730B840BBAF0915064
:101B1000A1F0FF0FBB1F661F771F881FC2F70EC003
:101B2000BA0F621F731F841F48F4879577956795D6
:101B3000B795F7959E3F08F0B0CF9395880F08F0C2
:101B40009927EE0F9795879508959F3F31F0915013
:101B500020F4879577956795B795880F911D969591
:101B6000879597F908950F931F93CF93DF93823052
:101B7000910510F482E090E0E0919704F0919804D0
:101B800020E030E0A0E0B0E0309719F140815181D1
:101B90000281138148175907C8F08417950769F423
:101BA000109731F012960C93129713961C9327C03E
:101BB000009397041093980422C02115310519F061
:101BC0004217530718F49A01BD01EF01DF01F80134
:101BD000DBCF21153105F9F0281B390B24303105F5
:101BE00080F48A819B816115710521F0FB0193834B
:101BF000828304C09093980480939704FE013296E8
:101C000044C0FE01E20FF31F8193919322503109EA
:101C1000398328833AC02091950430919604232B70
:101C200041F42091160130911701309396042093CE
:101C3000950420911401309115012115310541F4CD
:101C40002DB73EB74091180150911901241B350B57
:101C5000E0919504F0919604E217F307A0F42E1B8F
:101C60003F0B2817390778F0AC014E5F5F4F241700
:101C7000350748F04E0F5F1F50939604409395042C
:101C80008193919302C0E0E0F0E0CF01DF91CF912A
:101C90001F910F910895CF93DF93009709F481C0AE
:101CA000FC01329713821282A0919704B09198049C
:101CB000109781F420813181820F931F2091950428
:101CC000309196042817390751F5F0939604E09364
:101CD000950467C0ED0120E030E0CE17DF0740F447
:101CE0004A815B819E0141155105F1F0EA01F5CF72
:101CF000D383C28340815181840F951FC817D907B0
:101D000059F488819981840F951F0296918380836D
:101D10008A819B81938382832115310529F4F09375
:101D20009804E09397043DC0E901FB83EA8349915D
:101D30005991C40FD51FEC17FD0761F48081918183
:101D4000840F951F0296E90199838883828193818C
:101D50009B838A83E0E0F0E012968D919C9113972B
:101D6000009719F0FD01DC01F7CF8D919C9111973F
:101D70009D012E5F3F4F820F931F2091950430915C
:101D800096042817390769F4309729F410929804BB
:101D90001092970402C013821282B0939604A0930B
:101DA0009504DF91CF91089581E090E0F8940C9430
:061DB000D90EF894FFCFEC
:101DB6009E009E009E009E009E009E009E009E002D
:101DC6009E009E000000990420004D000004810141
:101DD60001080000000000000000000000000000F4
:101DE60000000000000000000000FC02D102A90271
:101DF60082025E023C021C02FE01E101C601AC0148
:101E060094017E016801540141012F011E010E015A
:101E1600FF00F000E300D600CA00BF00B400AA002D
:101E2600A00097008F0087007F00780071006B008C
:101E360065005F005A00550050004B004700430004
:101E46003F003C003800350032002F002D002A00EC
:101E560028002500230021001F001E001C001A0078
:101E660019001700160015001400120011001000CA
:101E76000F000F000E000D000C000B000B000A00F7
:101E86000A0009000800080007000700070006000E
:101E96000600050005000500050004000400040016
:101EA6000300030003000300030002000200020017
:101EB6000200020002000200010001000100010010
:101EC600010000000000000000000000000000000B
:101ED6000000000000002A029301C1017702F2010E
:101EE600D001E4010000000042071A07BD01B00658
:101EF600B90618073F06260618065D07F805BB064D
:00000001FF
